:020000040800F2
:1000000000800120C97F0008916800089F680008EF
:10001000A5680008AB680008B1680008000000008F
:10002000000000000000000000000000B7680008A9
:10003000C568000800000000198000082140000881
:10004000198000081980000819800008198000082C
:10005000198000081980000819800008198000081C
:10006000198000081980000819800008198000080C
:1000700019800008198000081980000819800008FC
:10008000198000081980000819800008000000008D
:1000900000000000000000000000000019800008BF
:1000A0001980000889250008198000081126000819
:1000B00019800008198000081980000819800008BC
:1000C00019800008198000081980000819800008AC
:1000D000198000081980000819800008000000003D
:1000E000198000081980000819800008000000002D
:1000F000000000000000000000000000198000085F
:10010000000000001980000819800008198000080C
:1001100000000000000000000000000000000000DF
:10012000198000081980000819800008198000084B
:10013000198000080000000000000000000000001E
:10014000000000000000000000000000198000080E
:10015000198000081980000819800008198000081B
:10016000198000081980000800000000000000004D
:10017000000000000000000000000000000000007F
:1001800000000000198000080000000000000000CE
:0401900019800008CA
:100198000348044B834202D0034B03B1184770470E
:1001A8004C0400204C0400200000000005480649CB
:1001B8000B1AD90F01EBA301491002D0034B03B16D
:1001C800184770474C0400204C0400200000000031
:1001D80010B5064C237843B9FFF7DAFF044B13B187
:1001E8000448AFF300800123237010BD4C040020A5
:1001F800000000003080000808B5044B1BB104491A
:100208000448AFF30080BDE80840CFE700000000D5
:100218005004002030800008EFF3098121B120ED5F
:10022800108A51490A6810607047B0EC108A4F492B
:100238000A681060704772B602B4EFF3118180F358
:100248001188BFF34F8FBFF36F8F084602BC62B6A9
:10025800704772B680F31188BFF34F8FBFF36F8F6B
:1002680062B6704772B64EF62250CEF2000040F2E7
:10027800FF01C0F200010170002080F3098840F6F8
:10028800E010C2F20000016881F3088803F034FE30
:1002980037480121017040F64A50C2F2000040F68A
:1002A8004B51C2F200010A78027040F66070C2F247
:1002B800000040F66871C2F200010A680260106826
:1002C80080F30988EFF3148040F0020080F314886B
:1002D800BFF36F8FBDE8F04F0FBCBDE8005006BC00
:1002E80062B6084723484FF080510160704772B6E4
:1002F80040F6E812C2F20002116881F31188BFF3D8
:100308004F8FBFF36F8F62B6EFF3098020E9F04F8C
:1003180040F66075C2F2000529680860744603F06B
:10032800EBFD40F64A50C2F2000040F64B51C2F2D3
:1003380000010A78027040F66871C2F200010A688A
:100348002A6044F0040E1068B0E8F04F80F3098882
:100358004FF0000272B682F31188BFF34F8FBFF3DC
:100368006F8F62B670470000600F0020680F002092
:10037800580D002004ED00E081F0004102E000BFCC
:1003880083F0004330B54FEA41044FEA430594EA4D
:10039800050F08BF90EA020F1FBF54EA000C55EA88
:1003A800020C7FEA645C7FEA655C00F0E2804FEA59
:1003B8005454D4EB5555B8BF6D420CDD2C4480EA3B
:1003C800020281EA030382EA000083EA010180EA6B
:1003D800020281EA0303362D88BF30BD11F0004FB9
:1003E8004FEA01314FF4801C4CEA113102D04042EF
:1003F80061EB410113F0004F4FEA03334CEA13332A
:1004080002D0524263EB430394EA050F00F0A78041
:10041800A4F10104D5F1200E0DDB02FA0EFC22FA3C
:1004280005F2801841F1000103FA0EF2801843FA30
:1004380005F359410EE0A5F120050EF1200E012A21
:1004480003FA0EFC28BF4CF0020C43FA05F3C0185F
:1004580051EBE37101F0004507D54FF0000EDCF1D8
:10046800000C7EEB00006EEB0101B1F5801F1BD381
:10047800B1F5001F0CD349085FEA30004FEA3C0C85
:1004880004F101044FEA445212F5800F80F09A807B
:10049800BCF1004F08BF5FEA500C50F1000041EB7F
:1004A800045141EA050130BD5FEA4C0C404141EB83
:1004B8000101013C28BFB1F5801FE9D291F0000F7E
:1004C80004BF01460020B1FA81F308BF2033A3F12D
:1004D8000B03B3F120020CDA0C3208DD02F1140C24
:1004E800C2F10C0201FA0CF021FA02F10CE002F15F
:1004F8001402D8BFC2F1200C01FA02F120FA0CFC58
:10050800DCBF41EA0C019040E41AA2BF01EB0451A0
:10051800294330BD6FEA04041F3C1CDA0C340EDC9E
:1005280004F11404C4F1200220FA04F001FA02F3E1
:1005380040EA030021FA04F345EA030130BDC4F19F
:100548000C04C4F1200220FA02F001FA04F340EA94
:100558000300294630BD21FA04F0294630BD94F045
:10056800000F83F4801306BF81F480110134013D2C
:100578004EE77FEA645C18BF7FEA655C29D094EA9D
:10058800050F08BF90EA020F05D054EA000C04BF1B
:100598001946104630BD91EA030F1EBF0021002006
:1005A80030BD5FEA545C05D14000494128BF41F0A5
:1005B800004130BD14F580043CBF01F5801130BD09
:1005C80001F0004545F0FE4141F470014FF0000094
:1005D80030BD7FEA645C1ABF194610467FEA655C45
:1005E8001CBF0B46024650EA013406BF52EA0335E7
:1005F80091EA030F41F4002130BD00BF90F0000FD5
:1006080004BF0021704730B54FF4806404F1320410
:100618004FF000054FF0000150E700BF90F0000FC9
:1006280004BF0021704730B54FF4806404F13204F0
:1006380010F0004548BF40424FF000013EE700BFC0
:1006480042004FEAE2014FEA31014FEA02701FBF50
:1006580012F07F4393F07F4F81F06051704732F082
:100668007F4208BF704793F07F4F04BF41F40021D9
:10067800704730B54FF4607401F0004521F0004137
:100688001CE700BF50EA010208BF704730B54FF0C1
:1006980000050AE050EA010208BF704730B511F0C2
:1006A800004502D5404261EB41014FF4806404F1FA
:1006B80032045FEA915C3FF4D8AE4FF003025FEA80
:1006C800DC0C18BF03325FEADC0C18BF033202EB04
:1006D800DC02C2F1200300FA03FC20FA02F001FA5E
:1006E80003FE40EA0E0021FA02F11444BDE600BF01
:1006F80070B54FF0FF0C4CF4E06C1CEA11541DBFB0
:100708001CEA135594EA0C0F95EA0C0F00F0DEF87A
:100718002C4481EA030621EA4C5123EA4C5350EA5F
:10072800013518BF52EA033541F4801143F48013B0
:1007380038D0A0FB02CE4FF00005E1FB02E506F041
:100748000042E0FB03E54FF00006E1FB03569CF096
:10075800000F18BF4EF0010EA4F1FF04B6F5007F9C
:1007680064F5407404D25FEA4E0E6D4146EB06060E
:1007780042EAC62141EA55514FEAC52040EA5E5097
:100788004FEACE2EB4F1FD0C88BFBCF5E06F1ED841
:10079800BEF1004F08BF5FEA500E50F1000041EB78
:1007A800045170BD06F0004646EA010140EA020025
:1007B80081EA0301B4EB5C04C2BFD4EB0C0541EA47
:1007C800045170BD41F480114FF0000E013C00F35C
:1007D800AB8014F1360FDEBF002001F0004170BD80
:1007E800C4F10004203C35DA0C341BDC04F1140499
:1007F800C4F1200500FA05F320FA04F001FA05F225
:1008080040EA020001F0004221F0004110EBD370F1
:1008180021FA04F642EB06015EEA430E08BF20EA1D
:10082800D37070BDC4F10C04C4F1200500FA04F3C0
:1008380020FA05F001FA04F240EA020001F0004152
:1008480010EBD37041F100015EEA430E08BF20EAC5
:10085800D37070BDC4F1200500FA05F24EEA020E0D
:1008680020FA04F301FA05F243EA020321FA04F03C
:1008780001F0004121FA04F220EA020000EBD370F3
:100888005EEA430E08BF20EAD37070BD94F0000FF3
:100898000FD101F00046400041EB010111F4801F27
:1008A80008BF013CF7D041EA060195F0000F18BFD8
:1008B800704703F00046520043EB030313F4801F14
:1008C80008BF013DF7D043EA0603704794EA0C0FCE
:1008D8000CEA135518BF95EA0C0F0CD050EA4106E4
:1008E80018BF52EA4306D1D181EA030101F0004161
:1008F8004FF0000070BD50EA410606BF1046194689
:1009080052EA430619D094EA0C0F02D150EA013694
:1009180013D195EA0C0F05D152EA03361CBF1046D5
:1009280019460AD181EA030101F0004141F0FE4174
:1009380041F470014FF0000070BD41F0FE4141F4F8
:10094800780170BD70B54FF0FF0C4CF4E06C1CEAF8
:1009580011541DBF1CEA135594EA0C0F95EA0C0FAD
:1009680000F0A7F8A4EB050481EA030E52EA033568
:100978004FEA013100F088804FEA03334FF0805589
:1009880045EA131343EA12634FEA022245EA1115B6
:1009980045EA10654FEA00260EF000419D4208BF67
:1009A800964244F1FD0404F5407402D25B084FEA14
:1009B8003202B61A65EB03055B084FEA32024FF4C0
:1009C80080104FF4002CB6EB020E75EB030E22BF1D
:1009D800B61A754640EA0C005B084FEA3202B6EBDD
:1009E800020E75EB030E22BFB61A754640EA5C008C
:1009F8005B084FEA3202B6EB020E75EB030E22BF1C
:100A0800B61A754640EA9C005B084FEA3202B6EB1C
:100A1800020E75EB030E22BFB61A754640EADC00DB
:100A280055EA060E18D04FEA051545EA16754FEA3D
:100A380006164FEAC30343EA52734FEAC2025FEA5B
:100A48001C1CC0D111F4801F0BD141EA00014FF0EA
:100A580000004FF0004CB6E711F4801F04BF0143BB
:100A68000020B4F1FD0C88BFBCF5E06F3FF6AFAED7
:100A7800B5EB030C04BFB6EB020C5FEA500C50F167
:100A8800000041EB045170BD0EF0004E4EEA1131EA
:100A980014EB5C04C2BFD4EB0C0541EA045170BDF1
:100AA80041F480114FF0000E013C90E645EA060E35
:100AB8008DE60CEA135594EA0C0F08BF95EA0C0F63
:100AC8003FF43BAF94EA0C0F0AD150EA01347FF4AB
:100AD80034AF95EA0C0F7FF425AF104619462CE782
:100AE80095EA0C0F06D152EA03353FF4FDAE1046E5
:100AF800194622E750EA410618BF52EA43067FF436
:100B0800C5AE50EA41047FF40DAF52EA43057FF4C5
:100B1800EBAE12E74FF0FF3C06E000BF4FF0010CD0
:100B280002E000BF4FF0010C4DF804CD4FEA410C34
:100B38007FEA6C5C4FEA430C18BF7FEA6C5C1BD001
:100B480001B050EA410C0CBF52EA430C91EA030F82
:100B580002BF90EA020F0020704710F1000F91EADF
:100B6800030F58BF994208BF90422CBFD8176FEAAD
:100B7800E37040F0010070474FEA410C7FEA6C5C7B
:100B880002D150EA013C07D14FEA430C7FEA6C5C82
:100B9800D6D152EA033CD3D05DF8040B704700BFAE
:100BA8008446104662468C461946634600E000BFFC
:100BB80001B5FFF7B7FF002848BF10F1000F01BDCE
:100BC8004DF808EDFFF7F4FF0CBF012000205DF899
:100BD80008FB00BF4DF808EDFFF7EAFF34BF01201E
:100BE80000205DF808FB00BF4DF808EDFFF7E0FFB7
:100BF80094BF012000205DF808FB00BF4DF808ED08
:100C0800FFF7CEFF94BF012000205DF808FB00BF6E
:100C18004DF808EDFFF7C4FF34BF012000205DF850
:100C280008FB00BF4FEA4102B2F1E04324BFB3F52D
:100C3800001CDCF1FE5C0DD901F0004C4FEAC0024B
:100C48004CEA5070B2F1004F40EB830008BF20F02F
:100C58000100704711F0804F21D113F13872BCBFE9
:100C680001F00040704741F480114FEA5252C2F13E
:100C78001802C2F1200C10FA0CF320FA02F018BF87
:100C880040F001004FEAC1234FEAD32303FA0CFCDA
:100C980040EA0C0023FA02F34FEA4303CCE77FEA69
:100CA800625307D150EA01331EBF4FF0FE4040F4B3
:100CB8004000704701F0004040F0FE4040F4000062
:100CC800704700BF002301461A46184600F03AB89C
:100CD80038B5084B084D5B1B9C1007D0043B1D44DE
:100CE800013C55F804399847002CF9D1BDE8384043
:100CF80007F0A0B9D4820008D082000870B50D4E64
:100D08000D4D761BB61006D0002455F8043B01346F
:100D18009847A642F9D1094E094D761B07F084F988
:100D2800B61006D0002455F8043B01349847A64273
:100D3800F9D170BDC8820008C8820008D0820008B6
:100D4800C882000870B4184C2568D5F848411CB30F
:100D580065681F2D25DC38B9AB1C0135656044F882
:100D68002310002070BC704704EB850C0228CCF8D7
:100D78008820D4F888614FF0010202FA05F246EAA9
:100D88000206C4F88861CCF80831E5D1D4F88C3172
:100D98001343C4F88C31DFE705F5A674C5F848415C
:100DA800D6E74FF0FF30DDE7A48000084FEA410C9A
:100DB8007FEA6C5C02D150EA013C0AD14FEA430C4D
:100DC8007FEA6C5C02D152EA033C02D14FF000008A
:100DD80070474FF001007047014B1868704700BF1B
:100DE8000000002038B52DED028B55EC104B00F0BB
:100DF8003BF8174BB0EE408AF0EE608A93F900306A
:100E0800013311D022462B4620462946FFF7CEFF54
:100E180050B945EC104B00F05DFE0E4B51EC100B39
:100E28000022FFF7F5FE30B9B0EE480AF0EE680A86
:100E3800BDEC028B38BDFFF7CFFFBDEC028B03463C
:100E480021221A600448BDE8384000F04DBE00BFBA
:100E5800300400200000F03FC482000800F058BAB7
:100E680000F0F6BB000000002DE9F84F55EC104BE0
:100E7800CF4B25F000479F422DED048B37DD10EE58
:100E8800103A07F1404707F580173B4310D010EEA2
:100E9800102A2B4620462946FFF772FA02460B46CF
:100EA800FFF750FD41EC100BBDEC048BBDE8F88F4B
:100EB80010EE100AA2A3D3E900232946FFF718FC75
:100EC80002460B462046294614461D469EA3D3E9F2
:100ED8000023FFF70DFC02460B4620462946FFF784
:100EE80051FABDEC048B41EC100BBDE8F88FB14B07
:100EF8009F422E4612DCB7F1795F80F2638194A39A
:100F0800D3E9002310EE100A2946FFF73BFAAA4B53
:100F18000022FFF77DFE002840F00C8145EC104BC5
:100F280000F0D8FDA44953EC102B0020FFF728FA55
:100F3800A24B0022FFF7DCFB87A3D3E9002304467A
:100F48000D46FFF7D5FB86A3D3E90023FFF71AFA6E
:100F580022462B46FFF7CCFB83A3D3E90023FFF7F8
:100F68000FFA22462B46FFF7C3FB81A3D3E90023E0
:100F7800FFF708FA22462B46FFF7BAFB7EA3D3E910
:100F88000023FFF7FDF922462B46FFF7B1FB7CA3B0
:100F9800D3E90023FFF7F6F922462B46FFF7A8FB13
:100FA80079A3D3E9002341EC180B41EC190B204637
:100FB8002946FFF79DFB76A3D3E90023FFF7E0F965
:100FC80022462B46FFF794FB73A3D3E90023FFF7D0
:100FD800D9F922462B46FFF78BFB71A3D3E90023EF
:100FE800FFF7CEF922462B46FFF782FB724B002211
:100FF800FFF7C8F945EC104B8046894600F05CFACB
:101008006F4B9F425BEC10AB73DC5B46002210EE2B
:10101800100A43EC182B594610EE102AFFF7B2F9C4
:1010280042464B468046894651EC190BFFF78AFC2D
:1010380002460B4640464946FFF75AFB53EC182B2D
:101048008046894651EC180BFFF752FB02460B46C7
:1010580020462946FFF794F953EC182B04460D4611
:1010680050465946FFF78EF902460B462046294658
:10107800FFF768FC02460B46FFF784F902460B4669
:1010880031A1D1E90001FFF77BF902460B46404642
:101098004946FFF775F953EC182B04460D4618EE30
:1010A800100A1946FFF76EF902460B463EA1D1E930
:1010B8000001FFF765F902460B4620462946FFF76F
:1010C8005FF902460B4638A1D1E90001FFF758F94C
:1010D80041EC100B002E3FF7E7AEBDEC048B10EE91
:1010E800901A10EE102A01F1004343EC102BBDE8D2
:1010F800F88F42464B4651EC180BFFF723FC52463B
:101108005B46FFF7F5FA52465B46FFF73BF90246A6
:101118000B46FFF737F90CA3D3E90023FFF730F9A3
:1011280002460B4606A1D1E90001FFF729F941EC77
:10113800100BCFE745EC104BB6E600BFAFF30080CD
:10114800182D4454FB21F93F075C143326A6913C23
:101158009C7500883CE4377E09F7FD0DE13D023FB0
:1011680088B20175E0EF493F3B8F68B52882A43FFC
:101178005544880E55C1C93F7D6FEB0312D6D43F45
:10118800555555555555C53F82922EB1C5B8B33FF3
:1011980059018D1B6C06E63FC88A599CE52A004018
:1011A8004B2D8A1C273A0340182D4454FB21E93F54
:1011B800FFFFEF3FFFFFDF3F0000F03F0000E03F91
:1011C8003233EF3F10EE102A10EE100A2B46294654
:1011D800FFF78EFA39A3D3E9002306460F46FFF737
:1011E80087FA38A3D3E90023FFF7CCF832463B4609
:1011F800FFF77EFA35A3D3E90023FFF7C1F832469B
:101208003B46FFF775FA33A3D3E90023FFF7BAF893
:1012180032463B46FFF76CFA30A3D3E90023FFF7C9
:10122800AFF832463B46FFF763FA2EA3D3E9002313
:10123800FFF7A8F832463B46FFF75AFA2BA3D3E943
:1012480000238046894630463946FFF751FA29A3DC
:10125800D3E90023FFF794F832463B46FFF748FAF4
:1012680026A3D3E90023FFF78DF832463B46FFF764
:101278003FFA24A3D3E90023FFF782F832463B461E
:10128800FFF736FA0C4B0022FFF77CF802460B46B4
:1012980040464946FFF756FB22462B46FFF728FAF9
:1012A80022462B46FFF76EF8BDEC048B41EC100B81
:1012B800BDE8F88FAFF300800000F03F09F7FD0D9F
:1012C800E13D023F88B20175E0EF493F3B8F68B5C9
:1012D8002882A43F5544880E55C1C93F7D6FEB0352
:1012E80012D6D43F555555555555C53F82922EB106
:1012F800C5B8B33F59018D1B6C06E63FC88A599C97
:10130800E52A00404B2D8A1C273A034000000000C4
:1013180051EC110B43422DE9F0470343644E21F091
:10132800004E4EEAD373B34255EC104B3ED863429D
:10133800234325F0004A4AEAD373B342A94635D875
:1013480001F1404303F5801303433ED08F1707F0A4
:1013580002075AEA040347EAD5772FD05EEA00036A
:1013680037D0B64544D0B24533D0AAEB0E0EBEF105
:10137800747F4FEA2E5338DA002945DA3C3343DAD2
:101388009FED3D0B012F5DD0022F4AD0A7B151EC44
:10139800100B3BA3D3E90023FEF7F2FF3AA3D3E9EE
:1013A8000023FEF7EDFF41EC100B05E022462B462B
:1013B800FEF7E8FF41EC100BBDE8F087022F0ED0D6
:1013C800032FF9D19FED320BF6E7BDE8F04700F0A7
:1013D800E7B9B9F1000F05DB9FED2F0BECE79FEDA7
:1013E8002A0BE9E79FED2E0BE6E79FED2B0BC9E7EC
:1013F800F24507F1FF372ED0022F34D82D4B03EBDF
:10140800C70797ED060BD7E702460B462046294645
:10141800FFF798FA41EC100B00F05CFB00F0C0F904
:10142800B0E717A3D3E9002351EC100BFEF7A8FF90
:1014380002460B4614A1D1E90001FEF7A1FF41ECD9
:10144800100BB9E710EE901A53EC102B01F1004382
:1014580043EC102BB0E7022F08D8164B03EBC70755
:1014680097ED000BA8E79FED040BA5E79FED0E0B8A
:10147800A2E700BFAFF300800000000000000000FA
:10148800075C143326A6A13C182D4454FB210940BF
:10149800182D4454FB2109C0182D4454FB21F93F51
:1014A800182D4454FB21F9BF182D4454FB21E93F62
:1014B8000000F07FA88000082DE9F041634A55EC50
:1014C800104BAA4300F09F80002D10EE10CA2B4647
:1014D80054DD291563D0C3F31303A1F2FF37C907FD
:1014E80043F4801304D45B0003EBDC734FEA4C0C29
:1014F8004FEADC72002602EB43037F104FEA4C0CE4
:101508004FF0160E34464FF40012A118994202DC2F
:101518005B1A8C1816445B00BEF1010E03EBDC73FA
:101528004FEA52024FEA4C0CEFD1754620204FF09B
:1015380000420AE044D04FEADC71013801EB430372
:101548004FEA4C0C4FEA520243D0A34202EB0E0181
:10155800F0DD002901EB020E0ADBA0461B1B6145EA
:1015680088BF03F1FF33ACEB010C15444446E2E7B6
:10157800BEF1000FF1DB04F10108EFE725F00042AE
:10158800224338D0002D4ED129464FEADC221539A6
:1015980013464FEA4C5C002AF7D0D60250D40020FC
:1015A8005B00DD02044600F10100F9D51A466346E6
:1015B8000CFA00FCC0F12000C340091B13438AE762
:1015C8006145B8D8002901EB020ED1DB984600230B
:1015D800C9E753EA0C0310D168087110F30701F149
:1015E8007F5101F5001148BF40F0004001EB07535F
:1015F800024643EC102BBDE8F0816A1C16BF681C3C
:1016080001364008E9E710EE102A10EE100A2B46C2
:101618002946FFF76DF822462B46FEF7B3FE41EC4C
:10162800100BBDE8F08110EE102A20462946FEF77F
:10163800A7FE02460B46FFF785F941EC100BDAE7E7
:10164800634620204FF0FF34B6E700BF0000F07F6C
:1016580010B582B0CDED010A019B23F00042B2F132
:10166800FF4FF0EE407A30DC10EE100A20F0004117
:10167800B1F1FF4F29DCB3F17E5F42D09C1704F033
:10168800020444EAD07431B37AB3B2F1FF4F40D0C8
:10169800B1F1FF4F29D08A1AB2F1F45F4FEAE25153
:1016A80034DA002B42DA3C3140DA9FED340A012C5F
:1016B8004ED0022C43D064B19FED317ADFED317A00
:1016C80030EE070A30EE670A03E09DED017A37EE47
:1016D800270A02B010BD022C10D09FED2B0A032C54
:1016E80018BFB0EE670A02B010BD9FED280ADFED03
:1016F800287A0028B8BFB0EE670AEAE79FED210A0A
:10170800E7E702B0BDE8104000F0F6B99FED1F0A08
:10171800CDE7B1F1FF4F04F1FF3420D0022C26D8D9
:101728001C4B03EB840494ED030AD2E79DED017A88
:1017380087EE870A00F0B4FA00F0DEF9B7E79FED0C
:10174800107ADFED107A30EE070A37EEC00AC0E7EC
:1017580010EE103A03F1004300EE103AB9E7022CFC
:1017680008D80C4B03EB840494ED000AB1E79FED15
:10177800030AAEE79FED080AABE700BF00000000D0
:101788002EBDBB33DB0F4940DB0F49C0DB0FC93F20
:10179800DB0FC9BFD8800008DB0F493F00000000FD
:1017A8002DE9F84F55EC104BC14B25F000469E42F1
:1017B800AA4617DDBF4B9E420ADC07D0BAF1000FDC
:1017C80040F3C7809FED9E0BBDE8F88F002CF5D045
:1017D80022462B4620462946FEF7D4FD41EC100B45
:1017E800BDE8F88FB44B9E4200F3B780A3F1DE73D7
:1017F8009E4240F39C804FF0FF3B22462B462046FA
:101808002946FEF775FF02460B4680468946FEF7D5
:101818006FFF8DA3D3E9002306460F46FEF768FF46
:101828008BA3D3E90023FEF7ADFD32463B46FEF716
:101838005FFF89A3D3E90023FEF7A4FD32463B46A8
:10184800FEF756FF86A3D3E90023FEF79BFD324639
:101858003B46FEF74DFF84A3D3E90023FEF792FD34
:1018680032463B46FEF744FF81A3D3E90023FEF747
:1018780089FD42464B46FEF73BFF7FA3D3E9002391
:101888008046894630463946FEF732FF7CA3D3E9C5
:101898000023FEF775FD32463B46FEF729FF7AA383
:1018A800D3E90023FEF76CFD32463B46FEF720FFE6
:1018B80077A3D3E90023FEF763FD32463B46FEF7E4
:1018C80017FF75A3D3E90023FEF75AFD32463B46BE
:1018D800FEF70EFFBBF1FF3F02460B464046494666
:1018E8005ED0764EFEF74EFD06EBCB0B22462B461E
:1018F800FEF7FEFEDBE90823FEF742FD22462B46F3
:10190800FEF73EFD02460B46DBE90001FEF738FD17
:10191800BAF1000F41EC100BBFF662AF10EE901A4F
:10192800024601F1004343EC102BBDE8F88F5CA39D
:10193800D3E9002310EE100A2946FEF723FD604B79
:101948000022FFF765F900283FF455AF45EC104B2E
:1019580046E79FED550BBDE8F88F00F0BBF8594BF3
:101968009E4255EC104B2BDCA3F550239E4256DCCF
:1019780010EE102A2B4610EE100A2946FEF702FD3B
:101988004F4B0022FEF7FCFC02460B462046294638
:1019980014461D464FF0000B00224FF0804327E00D
:1019A800FEF7F0FC22462B46FEF7A2FE02460B4647
:1019B80020462946FEF7E4FC41EC100BBDE8F88F01
:1019C800414B9E421FDA414B0022294610EE100A75
:1019D800FEF7D6FC02460B462046294614461D460D
:1019E80000223A4B4FF0020BFEF782FE344B0022E6
:1019F800FEF7C8FC02460B4620462946FEF7A2FF22
:101A080004460D46F9E62B46314910EE102A00200F
:101A1800FEF798FF4FF0030B04460D46EDE6284B02
:101A28000022294610EE100AFEF7AAFC02460B46D1
:101A3800204629464FF0010B14461D46D6E700BF45
:101A4800182D4454FB21F93F11DA22E33AAD903FB7
:101A5800EB0D76244B7BA93F513DD0A0660DB13FDD
:101A68006E204CC5CD45B73FFF8300922449C23F45
:101A78000D5555555555D53F2F6C6A2C44B4A2BF0A
:101A88009AFDDE522DDEAD3F6D9A74AFF2B0B33FD2
:101A9800711623FEC671BC3FC4EB98999999C93F4A
:101AA8009C7500883CE4377E182D4454FB21F9BF0F
:101AB800FFFF0F440000F07FFFFFDB3FF0800008CE
:101AC8000000F03FFFFFF23F008003400000F83FB6
:101AD8000000F0BF51EC100B10EE102A21F000436B
:101AE80043EC102B704700BF9FED010B704700BF00
:101AF800000000000000F87F38B510EE105A25F0FD
:101B08000044B4F1A14FF0EE407A0BDBB4F1FF4F83
:101B180058DCDFED517A9FED510A002DC8BFB0EEB9
:101B2800670A38BD4E4B9C425BDCB4F1445F4CDB2A
:101B38004FF0FF3267EEA76ADFED4A4ADFED4A5AF7
:101B48009FED4A5A9FED4A4A26EEA67AB0EE666A9B
:101B5800E7EE245A531CDFED474ADFED476AA5EE4E
:101B6800875AE7EE246ADFED455ADFED454AE6EE8F
:101B7800875AA5EE074A9FED435ADFED436AA5EE63
:101B8800875AE4EE074ADFED415AE4EE876AE5EE4C
:101B9800075A66EE866A25EE877A37D03C4B03EB08
:101BA800820376EE876A93ED000A93ED047A96EE47
:101BB800A70A002D70EE677A37EE670AB1DAB1EE40
:101BC800400A38BD30EE000A38BD9FED327A30EE5B
:101BD800077AF7EE006AB4EEE67AF1EE10FAA7DDBE
:101BE80038BD00F05DF82C4B9C4216DCA3F5D00301
:101BF8009C4227DCF0EE007ABFEE007AA0EE277A4E
:101C0800002230EE270AC7EE007A93E776EE876A5D
:101C1800E6EEE77AB0EE670A38BD204B9C420BDC53
:101C2800F7EE087AB7EE007AA0EE277A022230EEB5
:101C3800670AC0EE077A7DE7BFEE007AC7EE007A42
:101C4800032277E7F7EE007A30EE677A30EE270A5C
:101C58000122C7EE007A6DE7DB0FC93FDB0FC9BF72
:101C6800FFFFDF3ED769853C59DA4B3D356B883D30
:101C78006E2EBA3D21A215BD6BF16EBD95879DBD37
:101C88002549123E388EE3BDABAAAA3ECDCC4CBE48
:101C980030810008CAF24971FFFF973FFFFF1B40E0
:101CA80010EE103A23F0004300EE103A704700BFE0
:101CB80080B584B000AF0121012004F0D5FE4FF0BB
:101CC800804005F095FD0023BB810023FB804CF28A
:101CD8004F33BB605323BB800023BB733B1D1946A6
:101CE8004FF0804005F020F800BF1037BD4680BD9A
:101CF80080B582B000AF78604FF0804300225A620E
:101D080001214FF0804005F09BF800BF4FF0804361
:101D18005B6A7A689A42F9D84FF0804300225A6287
:101D280000214FF0804005F08BF800BF0837BD4612
:101D380080BD80B582B000AF786003E04FF47A7060
:101D4800FFF7D6FF7B685A1E7A60002BF6D100BFDA
:101D580000BF0837BD4680BD80B582B000AF0346DE
:101D68000A46FB711346BB7101F036FC3C2001F0BA
:101D78007DFC01F05BFCFB79184601F077FC01F073
:101D880055FCBB79184601F071FC01F04FFC01F0DD
:101D980033FC00BF0837BD4680BD80B500AF01F0F9
:101DA800F9FB10210020FFF7D7FF20210120FFF7C2
:101DB800D3FF00210220FFF7CFFF00BF80BD000046
:101DC80080B582B000AF0121012004F02DFE01236F
:101DD8003B7120233B6002237B710023BB710023EE
:101DE800FB713B461946034804F034FC00BF083732
:101DF800BD4680BD0000024080B582B000AF0346FA
:101E08000A46FB711346BB7101F0E6FBD02001F0D6
:101E18002DFC01F00BFCFB79184601F027FC01F0C2
:101E280005FCBB79184601F021FC01F0FFFB01F02D
:101E3800E3FB00BF0837BD4680BD80B584B000AF66
:101E48000346FB7101F0C8FBD02001F00FFC01F044
:101E5800EDFBFB79184601F009FC01F0E7FB01F006
:101E6800CBFB01F0B9FBD12001F000FC01F0DEFB57
:101E780001F026FC0346FB7301F0CBFB01F0BCFB31
:101E8800FB7B18461037BD4680BD80B584B000AFD7
:101E98000346FB71FB791846FFF7CFFF0346FB7338
:101EA800FB790133DBB21846FFF7C7FF0346BB7364
:101EB800FB7B1B021AB2BB7B1BB213431BB2BB8159
:101EC800B7F90C3018461037BD4680BD80B500AF55
:101ED80001F060FB80216B20FFF78EFF0A20FFF7DF
:101EE80007FF00216B20FFF787FF01216B20FFF719
:101EF80083FF00216C20FFF77FFF07211920FFF7E0
:101F08007BFF06211A20FFF777FF18211B20FFF718
:101F180073FF00211C20FFF76FFF02213720FFF716
:101F28006BFF00216A20FFF767FF00BF80BD00003C
:101F380080B586B000AFF860B9607A603B20FFF7E3
:101F4800A4FF0346FB823D20FFF79FFF0346BB82A9
:101F58003F20FFF79AFF03467B82B7F9163007EE5A
:101F6800903AF8EEE77AB1EE007A27EE877ADFED5D
:101F78004C6AC7EE267AFB68C3ED007AB7F91430CD
:101F880007EE903AF8EEE77AB1EE007A27EE877A14
:101F9800DFED436AC7EE267ABB68C3ED007AB7F96E
:101FA800123007EE903AF8EEE77AB1EE007A27EEB3
:101FB800877ADFED3B6AC7EE267A7B68C3ED007A45
:101FC800FB681B681846FEF73BFB29A3D3E90023EF
:101FD800FEF7D6F902460B461046194626A3D3E962
:101FE8000023FEF785FB02460B4610461946FEF70E
:101FF80019FE0246FB681A60BB681B681846FEF7A4
:102008001FFB1FA3D3E90023FEF7BCF902460B46CA
:10201800104619461CA3D3E90023FEF769FB0246C4
:102028000B4610461946FEF7FDFD0246BB681A60CE
:102038007B681B681846FEF703FB15A3D3E900234A
:10204800FEF7A0F902460B461046194612A3D3E93B
:102058000023FEF74DFB02460B4610461946FEF7D5
:10206800E1FD02467B681A6000BF1837BD4680BD97
:10207800698B6B7C26FBAF3F0EF3E505D8C7EF3FB6
:102088007C43E1B37570903FD36872310616F03F18
:1020980012143FC6DCB5C23F4D0F0A4AD14AEF3F82
:1020A80000FF7F470000000080B586B000AFF860F1
:1020B800B9607A604320FFF7E8FE0346FB824520BB
:1020C800FFF7E3FE0346BB824720FFF7DEFE034629
:1020D8007B82B7F9163007EE903AF8EEE77A9FED73
:1020E800507A27EE877ADFED4F6AC7EE267AFB68CB
:1020F800C3ED007AB7F9143007EE903AF8EEE77AB4
:102108009FED477A27EE877ADFED466AC7EE267A93
:10211800BB68C3ED007AB7F9123007EE903AF8EED3
:10212800E77A9FED3F7A27EE877ADFED3E6AC7EEC2
:10213800267A7B68C3ED007AFB681B681846FEF7B1
:102148007FFA31A3D3E90023FEF71CF902460B46B8
:1021580010461946FEF766FD0246FB681A60BB6822
:102168001B681846FEF76CFA29A3D3E90023FEF78B
:1021780007F902460B4610461946FEF753FD02467C
:10218800BB681A607B681B681846FEF759FA22A3D9
:10219800D3E90023FEF7F4F802460B461046194629
:1021A800FEF740FD02467B681A60FB68D3ED007AB3
:1021B8009FED1D7A27EE877ADFED1C6AC7EE267A37
:1021C800FB68C3ED007ABB68D3ED007A9FED167A01
:1021D80027EE877ADFED156AC7EE267ABB68C3ED6E
:1021E800007A7B68D3ED007A9FED0F7A27EE877A25
:1021F800DFED0E6AC7EE267A7B68C3ED007A00BF72
:102208001837BD4680BD00BF6397A8DE1A58FB3F4C
:102218005C8FC2F5285C0A40F2D24D621058DB3F51
:1022280000007A4500FF7F47DA0F49400000344339
:1022380080B58AB000AF0121022004F015FC3D48AA
:1022480005F0D6FA0023BB840023FB8341F28733D1
:102258003B625323BB83002387F8263007F11C0316
:102268001946344804F060FD0121042004F0DCFB29
:1022780002233B760023BB764FF470737B61002307
:10228800FB7603237B7607F1140319462A4804F0EA
:10229800E1F902220621284804F0ADFA02220721BA
:1022A800254804F0A8FA02220821234804F0A3FADA
:1022B80002220921204804F09EFA3B46184604F001
:1022C800CFFF60233B800023FB8101237B804FF4F9
:1022D800FA73BB603B461946164804F0D1FD3B46ED
:1022E8001946144804F046FE3B461946114804F0C6
:1022F800C9FE3B4619460F4804F04AFF08210D481D
:1023080005F008F808210B4805F020F808210948CD
:1023180005F03AF80821074805F052F80121054868
:1023280004F06EFD0121034804F08AFD00BF283740
:10233800BD4680BD000400400008024080B582B060
:1023480000AF0346FB80FB881946034804F0AAFF48
:1023580000BF0837BD4680BD0004004080B582B08C
:1023680000AF0346FB80FB881946034804F0A8FF2A
:1023780000BF0837BD4680BD0004004080B582B06C
:1023880000AF0346FB80FB881946034804F0A6FF0C
:1023980000BF0837BD4680BD0004004080B582B04C
:1023A80000AF0346FB80FB881946034804F0A4FFEE
:1023B80000BF0837BD4680BD0004004080B500AFAF
:1023C8004FF47A70FFF7BAFF4FF47A70FFF7C6FF41
:1023D8004FF47A70FFF7D2FF4FF47A70FFF7DEFF01
:1023E80000BF80BD80B485B000AFF860B9607A6086
:1023F8003B60094AFB685363074ABB689363064A14
:102408007B68D363044A3B68136400BF1437BD4636
:102418005DF8047B704700BF0004004080B58AB0B7
:1024280000AF0121012004F0FFFA0121012004F08E
:102438003BFB022387F82430002387F82630032348
:1024480087F82530022387F827304FF470633B6202
:1024580007F120031946484804F0FCF80122082136
:10246800454804F0C8F901220921434804F0C3F99A
:1024780001220A21404804F0BEF901220B213E48FE
:1024880004F0B9F93D4804F06FFB0023BB83002337
:10249800FB824FF6FF73BB615323BB820023BB77DC
:1024A80007F114031946354804F03EFC00233B812C
:1024B80000233B8200237B810023FB810123BB8116
:1024C80007F1080319462D4805F00EF804233B814F
:1024D80000233B8200237B810023FB810123BB81F6
:1024E80007F108031946254804F0FEFF08233B813D
:1024F80000233B8200237B810023FB810123BB81D6
:1025080007F1080319461D4804F0EEFF0C233B8130
:1025180000233B8200237B810023FB810123BB81B5
:1025280007F108031946154804F0DEFF1F21134878
:1025380005F012F91B233B710123FB7100237B710A
:102548000023BB713B1D184604F022F801210B48FB
:1025580005F002F90021094804F052FC01221F216C
:10256800064805F0B9F80121044804F069FC00BFE9
:102578002837BD4680BD00BF000002400000014072
:1025880080B582B000AF01211B4805F0F6F803467C
:10259800002B2DD00121184805F019F90023FB71F3
:1025A80023E0FB79154AD35C012B1BD1FB79144A34
:1025B80032F8133003F03F033F2B0AD1FB79114A5D
:1025C800002122F82310FB790D4A002122F813106C
:1025D80008E0FB790A4A32F81320013291B2084A1E
:1025E80022F81310FB790133FB71FB79032BD8D93F
:1025F80000BF0837BD4680BD0000014078040020B8
:102608007C0400208404002080B500AF02219D488E
:1026180005F086F80346002B4DD00221994805F0B5
:10262800D6F8994B1B78002B0ED1964804F0B0FFD2
:1026380003469AB2954B1A80934B01221A700221D5
:10264800904804F0DBFE36E08E4804F0A1FF034614
:102658009AB28E4B5A808D4B5A888C4B1B889A4263
:1026680010D98A4B5B881A46884B1B88D21A884B2C
:102678001B88194641F2873301FB03F31344854A4B
:1026880013600EE0824B1B881A4641F2873302FB27
:1026980003F37E4A12889B1A7C4A528813447D4A67
:1026A80013607B4B00221A80774B00221A7000219E
:1026B800744804F0A3FE0421724805F031F803467B
:1026C800002B4DD004216F4805F081F86E4B5B78E4
:1026D800002B0ED16B4804F067FF03469AB26B4B90
:1026E8009A80694B01225A700221664804F0A2FEC2
:1026F80036E0644804F058FF03469AB2634BDA8028
:10270800624BDA88614B9B889A4210D95F4BDB8811
:102718001A465E4B9B88D21A5D4B5B88194641F27C
:10272800873301FB03F313445A4A53600EE0584BB6
:102738005B881A4641F2873302FB03F3534A9288B7
:102748009B1A524AD2881344524A5360504B002273
:102758005A804D4B00225A7000214A4804F06AFE04
:102768000821484804F0DCFF0346002B4DD008211F
:10277800444805F02CF8444B9B78002B0ED1414877
:1027880004F01EFF03469AB2404B1A813E4B0122C9
:102798009A7002213B4804F06BFE36E0394804F099
:1027A8000FFF03469AB2394B5A81384B5A89374B37
:1027B8001B899A4210D9354B5B891A46334B1B89C2
:1027C800D21A334B9B88194641F2873301FB03F336
:1027D8001344304A93600EE02D4B9B881A4641F211
:1027E800873302FB03F3294A12899B1A274A528925
:1027F8001344284A9360264B00229A80224B0022D9
:102808009A7000211F4804F033FE10211D4804F07F
:1028180087FF0346002B58D010211A4804F0D7FF31
:10282800194BDB78002B0ED1164804F0D5FE034671
:102838009AB2164B9A81144B0122DA700221114880
:1028480004F034FE41E00F4804F0C6FE03469AB295
:102858000E4BDA810D4BDA890C4B9B899A421BD9B6
:102868000A4BDB891A46094B9B89D21A084BDB882D
:10287800194641F2873301FB03F31344054AD36039
:1028880019E000BF00000140780400208404002003
:102898007C040020680400200D4BDB881A4641F2B6
:1028A800873302FB03F30B4A92899B1A094AD289A0
:1028B8001344094AD360064B0022DA80074B0022F2
:1028C800DA700021064804F0F1FD00BF80BD00BFAA
:1028D8007C04002084040020680400207804002080
:1028E8000000014080B588B000AF0121102004F03D
:1028F800DBF80121022004F097F802233B7700233C
:10290800BB77C023BB610023FB7703237B770722B8
:1029180006211F4803F06FFF072207211C4803F018
:102928006AFF07F118031946194803F093FE4FF49C
:102938001653BB600023BB820C237B8200233B829F
:102948000023FB810023BB8107F1080319461148C6
:1029580005F088F8012240F225510E4805F05CF98F
:102968004FF4A06003F000FE25233B710123FB71A7
:1029780001237B710123BB713B1D184603F008FE40
:102988000121044805F028F900BF2037BD4680BD65
:10299800000402400010014080B586B000AF87ED0A
:1029A800050AC7ED040A87ED031AC7ED021A87ED79
:1029B800012AC7ED002AD7ED002A97ED012AD7EDA5
:1029C800021A97ED031AD7ED040A97ED050A00F0ED
:1029D800DBF800BF1837BD4680BD000000000000CE
:1029E800B0B584B000AFF860B9607A60624B93ED1F
:1029F800007A624BD3ED007A27EE277A604BD3ED4D
:102A0800006A604BD3ED007A66EEA77A77EE277AF4
:102A180077EEA77A17EE900AFDF712FE04460D46E8
:102A2800564B93ED007A554BD3ED007A27EE277A73
:102A3800534BD3ED006A524BD3ED007A66EEA77A7A
:102A480077EE277A77EEA77AB7EE007A77EE677A8D
:102A580017EE900AFDF7F4FD02460B4643EC112BE6
:102A680045EC104BFEF7FAF951EC100B40A3D3E9F3
:102A78000023FDF73DFE02460B4610461946FEF7B9
:102A8800D1F80246FB681A603B4B93ED007A3C4B49
:102A9800D3ED007A27EE277A3A4BD3ED006A374B0D
:102AA800D3ED007A66EEA77A77EE677A77EEA77AA3
:102AB80017EE900AFDF7C4FD02460B4643EC102BB7
:102AC800FEF790F951EC100B29A3D3E90023FDF789
:102AD8000FFE02460B4610461946FEF7A3F80246BB
:102AE800BB681A60244B93ED007A264BD3ED007A2D
:102AF80027EE277A214BD3ED006A214BD3ED007ADC
:102B080066EEA77A37EE276A1D4B93ED007A1C4BC9
:102B1800D3ED007A67EE277AB6EE007A37EE677A59
:102B2800184BD3ED006A174BD3ED007A66EEA77AFF
:102B380077EE677AF0EE670AB0EE460AFEF790F98C
:102B480010EE103A1846FDF77BFD09A3D3E90023E0
:102B5800FDF7CEFD02460B4610461946FEF762F811
:102B680002467B681A6000BF1037BD46B0BD00BF83
:102B7800F8C1631ADCA54C403804002094040020F6
:102B8800980400209C04002080B59CB000AF87ED1D
:102B9800050AC7ED040A87ED031AC7ED021A87ED87
:102BA800012AC7ED002AEC4BD3ED007AB1EE677A23
:102BB800D7ED057A27EE277AE84BD3ED006AD7EDF3
:102BC800047A66EEA77A37EE677AE54BD3ED006AAA
:102BD800D7ED037A66EEA77A77EE677AB6EE007AD3
:102BE80067EE877AC7ED1B7ADE4B93ED007AD7ED57
:102BF800057A27EE277AD94BD3ED006AD7ED037A09
:102C080066EEA77A37EE277AD54BD3ED006AD7ED73
:102C1800047A66EEA77A77EE677AB6EE007A67EE00
:102C2800877AC7ED1A7ACF4B93ED007AD7ED047AFD
:102C380027EE277AC84BD3ED006AD7ED037A66EE04
:102C4800A77A37EE677AC64BD3ED006AD7ED057AD7
:102C580066EEA77A77EE277AB6EE007A67EE877A7D
:102C6800C7ED197ABF4B93ED007AD7ED037A27EEBB
:102C7800277AB94BD3ED006AD7ED047A66EEA77AC6
:102C880037EE277AB54BD3ED006AD7ED057A66EEB5
:102C9800A77A77EE677AB6EE007A67EE877AC7ED9D
:102CA800187AD7ED027AF5EE407AF1EE10FA0ED1E5
:102CB800D7ED017AF5EE407AF1EE10FA07D1D7EDAB
:102CC800007AF5EE407AF1EE10FA00F0E581D7EDE2
:102CD800027A27EEA77AD7ED017A67EEA77A37EE60
:102CE800277AD7ED007A67EEA77A77EE277AB0EEE3
:102CF800670A00F06DFA87ED170A97ED027AD7EDAB
:102D0800177A67EE277AC7ED027A97ED017AD7ED41
:102D1800177A67EE277AC7ED017A97ED007AD7ED33
:102D2800177A67EE277AC7ED007A8E4BD3ED007AD3
:102D380077EEA77AC7ED167A874BD3ED007A77EE50
:102D4800A77AC7ED157A854BD3ED007A77EEA77A87
:102D5800C7ED147A824BD3ED007A77EEA77AC7EDE8
:102D6800137A804BD3ED007AB1EE007A67EE877A5A
:102D7800C7ED127A784BD3ED007AB1EE007A67EEA0
:102D8800877AC7ED117A754BD3ED007AB1EE007AE8
:102D980067EE877AC7ED107A6F4BD3ED007AB2EE03
:102DA800007A67EE877AC7ED0F7A6C4BD3ED007A1D
:102DB800B2EE007A67EE877AC7ED0E7A694B93ED2B
:102DC800007A684BD3ED007A67EE277AC7ED0D7A63
:102DD800614B93ED007A604BD3ED007A67EE277A6A
:102DE800C7ED0C7A5D4B93ED007A5C4BD3ED007A1E
:102DF80067EE277AC7ED0B7A594B93ED007A584B5B
:102E0800D3ED007A67EE277AC7ED0A7A97ED127A42
:102E1800D7ED0B7A27EE277AD7ED146AD7ED027A29
:102E280066EEA77A37EE277AD7ED126AD7ED0C7AD5
:102E380066EEA77A37EE277AD7ED156AD7ED017ACD
:102E480066EEA77A77EE677AC7ED097A97ED117A79
:102E5800D7ED0A7A27EE277AD7ED136AD7ED027AEB
:102E680066EEA77A37EE677AD7ED0D7AF1EE006A4B
:102E780067EEA66A384BD3ED007A66EEA77A37EE8E
:102E8800277AD7ED166AD7ED017A66EEA77A37EE7C
:102E9800677AD7ED117A37EE677AD7ED0F6AD7EDF3
:102EA8000C7A66EEA77A37EE277AD7ED0F6AD7ED58
:102EB8000B7A66EEA77A37EE277AD7ED116AD7ED47
:102EC800007A66EEA77A77EE277AC7ED087AD7ED0B
:102ED8000D7AB1EE007A27EE877A204BD3ED007A8F
:102EE80027EE277AD7ED166AD7ED027A66EEA77A2B
:102EF80037EE277AD7ED106AD7ED0A7A66EEA77A09
:102F080037EE277AD7ED136AD7ED017A66EEA77AFE
:102F180037EE677AD7ED107A37EE677AD7ED0E6A13
:102F2800D7ED0C7A66EEA77A37EE277AD7ED0E6AD8
:102F3800D7ED0B7A66EEA77A37EE277AD7ED106AC7
:102F4800D7ED007A66EEA77A77EE277AC7ED077A8B
:102F5800D7ED0C7A08E000BF940400209804002004
:102F68009C04002038040020B1EE007A27EE877A0E
:102F7800914BD3ED007A27EE277AD7ED156AD7ED76
:102F8800027A66EEA77A37EE677AD7ED0B7AF1EE1A
:102F9800006A67EEA66A884BD3ED007A66EEA77AD8
:102FA80037EE277AD7ED146AD7ED017A66EEA77A5D
:102FB80077EE677AC7ED067AD7ED097A27EEA77A12
:102FC800D7ED087A67EEA77A37EE277AD7ED077A32
:102FD80067EEA77A37EE277AD7ED067A67EEA77AF3
:102FE80077EE277AB0EE670A00F0F2F887ED170A55
:102FF80097ED097AD7ED177A67EE277AC7ED097A40
:1030080097ED087AD7ED177A67EE277AC7ED087A31
:1030180097ED077AD7ED177A67EE277AC7ED077A23
:1030280097ED067AD7ED177A67EE277AC7ED067A15
:10303800624B93ED007AD7ED097A67EE277A97ED20
:103048001B7A77EE677AC7ED1B7A5C4B93ED007AB3
:10305800D7ED087A67EE277A97ED1A7A77EE677ACE
:10306800C7ED1A7A554B93ED007AD7ED077A67EEDC
:10307800277A97ED197A77EE677AC7ED197A4F4B69
:1030880093ED007AD7ED067A67EE277A97ED187AEE
:1030980077EE677AC7ED187AD7ED1B7A9FED487AF5
:1030A80027EE877A474BD3ED007A77EE277A454BA0
:1030B800C3ED007AD7ED1A7A9FED417A27EE877A29
:1030C800414BD3ED007A77EE277A3F4BC3ED007A78
:1030D800D7ED197A9FED3A7A27EE877A3B4BD3EDF5
:1030E800007A77EE277A394BC3ED007AD7ED187A54
:1030F8009FED337A27EE877A2F4BD3ED007A77EE60
:10310800277A2D4BC3ED007A2E4B93ED007A2D4B89
:10311800D3ED007A27EE277A2B4BD3ED006A2A4BA2
:10312800D3ED007A66EEA77A37EE277A274BD3EDF0
:10313800006A264BD3ED007A66EEA77A37EE277A37
:103148001D4BD3ED006A1C4BD3ED007A66EEA77ACF
:1031580077EE277AB0EE670A00F03AF887ED170A9B
:10316800184B93ED007AD7ED177A67EE277A154B4F
:10317800C3ED007A144B93ED007AD7ED177A67EE1A
:10318800277A114BC3ED007A104B93ED007AD7EDF7
:10319800177A67EE277A0D4BC3ED007A064B93ED4D
:1031A800007AD7ED177A67EE277A034BC3ED007ADA
:1031B80000BF7037BD4680BD9C0400203404002049
:1031C8008988883C38040020940400209804002052
:1031D80080B487B000AF87ED010AD7ED017AB6EE6B
:1031E800007A67EE877AC7ED057A7B683B6107F15D
:1031F80010031B68FB60FB685A10124B9B1AFB609C
:1032080007F10C031B683B6197ED047AD7ED057A4B
:1032180027EE277AD7ED047A67EE277AB7EE087A91
:1032280037EE677AD7ED047A67EE277AC7ED047A26
:103238003B6907EE903AB0EE670A1C37BD465DF869
:10324800047B7047DF59375F80B485B000AF87EDE6
:10325800030AC7ED020A87ED011A97ED037AD7ED45
:10326800027AB4EEE77AF1EE10FA01D5BB680BE00A
:1032780097ED037AD7ED017AB4EEE77AF1EE10FA1A
:1032880001DD7B6800E0FB6807EE903AB0EE670A64
:103298001437BD465DF8047B7047000080B582B0E6
:1032A80000AF914B7B60914B914A1A6000F0E4FAB1
:1032B80000F018FB8D4BD3ED007A9FED8E7AF4EE7B
:1032C800C77AF1EE10FA0CD58B4B4FF000021A605A
:1032D8008A4B4FF000021A60894B4FF000021A60C7
:1032E80077E0854BD3ED006A804BD3ED007A9FEDF4
:1032F800857A77EEC77AB1EE677AD7ED017A27EE4D
:10330800276A7A4BD3ED007A9FED7E7A37EEC77A3B
:10331800D7ED017A67EE277AB0EE671AF0EE460A23
:10332800B0EE660AFFF790FFF0EE407A724BC3EDFD
:10333800007A724BD3ED006A6C4BD3ED007A9FEDA7
:10334800717A77EEC77AB1EE677AD7ED017A27EE10
:10335800276A664BD3ED007A9FED6A7A37EEC77A13
:10336800D7ED017A67EE277AB0EE671AF0EE460AD3
:10337800B0EE660AFFF768FFF0EE407A5F4BC3EDE8
:10338800007A5F4BD3ED006A584BD3ED007A9FED7E
:103398005D7A77EEC77AB1EE677AD7ED017A27EED4
:1033A800276A524BD3ED007A9FED567A37EEC77AEB
:1033B800D7ED017A67EE277AB0EE671AF0EE460A83
:1033C800B0EE660AFFF740FFF0EE407A4C4BC3EDD3
:1033D800007A464B93ED007A474BD3ED007A37EEEF
:1033E800677A464BD3ED007A77EE677A9FED461AF7
:1033F800DFED460AB0EE670AFFF726FFF0EE407AE7
:10340800FDEEE77A17EE903A1BB21A46404B9A60E7
:10341800364B93ED007A384BD3ED007A37EE277AA6
:10342800364BD3ED007A77EE677A9FED371ADFEDEA
:10343800370AB0EE670AFFF707FFF0EE407AFDEEB5
:10344800E77A17EE903A1BB21A46314B5A60274B6F
:1034580093ED007A284BD3ED007A37EE677A274B45
:10346800D3ED007A77EE277A9FED271ADFED270A4A
:10347800B0EE670AFFF7E8FEF0EE407AFDEEE77A75
:1034880017EE903A1BB21A46214BDA60174B93EDB0
:10349800007A194BD3ED007A37EE277A174BD3ED24
:1034A800007A77EE277A9FED181ADFED180AB0EE4A
:1034B800670AFFF7C9FEF0EE407AFDEEE77A17EEED
:1034C800903A1BB21A46124B1A60114B1868104BEF
:1034D80059680F4B9A680E4BDB68FEF783FF00BFF5
:1034E8000837BD4680BD00BFCDCC4C3FBC04002092
:1034F8000000AF4400408344B4040020B00400201E
:10350800B804002000007A440000E14400808944A7
:10351800A004002080B582B000AF0346FB71FB79A0
:103528001A464FF48071054803F04CF90A20FEF75B
:10353800DFFB00BF0837BD4680BD00BF0004024066
:1035480080B582B000AF0346FB71FB791A464FF491
:103558000071054803F036F90A20FEF7C9FB00BFE1
:103568000837BD4680BD00BF0004024080B582B068
:1035780000AF4FF40071064803F0FBF80346FB71F7
:103588000A20FEF7B5FBFB7918460837BD4680BD13
:103598000004024080B582B000AF0121022003F090
:1035A80043FA01233B710123BB714FF440733B6025
:1035B8000123FB7102237B713B461946054803F042
:1035C80049F84FF44071034803F0EDF800BF08379D
:1035D800BD4680BD0004024080B500AF0120FFF762
:1035E800AFFF0120FFF796FF0020FFF7A9FF00209B
:1035F800FFF790FF00BF80BD80B500AF0020FFF748
:103608009FFF0120FFF786FF0120FFF799FF00BF0A
:1036180080BD80B500AF0120FFF792FF0120FFF7C2
:1036280079FF0020FFF776FF00BF80BD80B582B02C
:1036380000AF0023BB710023FB710120FFF780FF5F
:103648000120FFF767FFFB790133FB71FB79FA2B48
:10365800F9D9FFF7D1FF0123BB7100BF0020FFF7A5
:1036680059FFBB7918460837BD4680BD80B584B080
:1036780000AF0346FB710023FB730023FB7315E0C7
:103688000020FFF747FFFB7B802242FA03F35AB280
:1036980097F9073013405BB2DBB21846FFF750FFCB
:1036A8000120FFF737FFFB7B0133FB73FB7B072B05
:1036B800E6D90020FFF72EFF00BF1037BD4680BDBA
:1036C80080B582B000AF0023FB710023BB710120DD
:1036D800FFF736FF0023BB7117E00020FFF71AFF42
:1036E8000120FFF717FFFFF741FF0346012B09D120
:1036F800BB79802242FA03F35AB297F90730134391
:103708005BB2FB71BB790133BB71BB79072BE4D981
:103718000020FFF7FFFEFB7918460837BD4680BD3D
:1037280080B586B000AFF86087ED020AC7ED010AE0
:1037380039604FF000037B613868FCF76FFF4CA3DA
:10374800D3E90023FDF7FEF802460B46104619465A
:10375800FDF768FA03463B6197ED027AD7ED017AE7
:1037680077EE677AFB68C3ED047AFB6893ED047A19
:10377800FB68D3ED057A77EE676A97ED047AC6EEB3
:10378800877AFB68C3ED0A7AFB6893ED007AFB68D9
:10379800D3ED047A27EE277AFB68D3ED016AFB683C
:1037A800D3ED087A66EEA77A37EE277AFB68D3ED71
:1037B800026AFB68D3ED0A7A66EEA77A77EE277A73
:1037C800FB68C3ED0B7AFB681A69FB685A61FB68F2
:1037D800D3ED047AB0EEE77A234BD3ED007ADFED30
:1037E800236A77EEE67AB4EEE77AF1EE10FA00D4BF
:1037F80034E0FB6893ED087AFB68D3ED046AD7EDF3
:10380800047A66EEA77A77EE277AC7ED057AFB6821
:10381800D3ED097AF1EE677A97ED057AB4EEE77A97
:10382800F1EE10FA00DC19E0FB68D3ED097A97EDA8
:10383800057AB4EEE77AF1EE10FA00D40EE0FB68F0
:1038480093ED0B7AFB68D3ED097AB4EEE77AF1EEE3
:1038580010FA00D402E0FB687A691A6200BF1837D0
:10386800BD4680BDAFF30080BC04002000007A4450
:103878000000000080842E4180B584B000AF3B1D5D
:1038880000221A605A609A604FF00003BB604FF044
:1038980000037B60D7ED017A0E4B93ED007A4FF46D
:1038A8007A71F0EE470AB0EE670A0B48FFF738FF67
:1038B800D7ED027A094B93ED007A4FF47A71F0EE66
:1038C800470AB0EE670A0648FFF72AFF00BF10371D
:1038D800BD4680BD18240020F00400201C240020D0
:1038E800C004002080B582B000AF4FF000037B60B9
:1038F8004FF000037B601D4BD3ED0B7A1C4B93ED0F
:10390800047A4FF47A71F0EE470AB0EE670A194864
:10391800FFF706FF184BD3ED0B7A154B93ED037A9F
:103928004FF47A71F0EE470AB0EE670A1348FFF7D2
:10393800F7FE0F4BD3ED057A4FF47A71F0EE670A74
:1039480097ED010A0E48FFF7EBFE0A4BDB6A0D4ABA
:1039580013600A4BDB6A0C4A1360094BDB6A0B4A9B
:10396800136000BF0837BD4680BD00BFC0040020FB
:103978002424002050050020F004002080050020A9
:10398800B0050020B4040020B0040020B8040020D2
:1039980080B400AF294B2A4A1A60284B4FF0000226
:1039A8005A60264B4FF000029A60244B254A5A620F
:1039B800254B264A1A60244B4FF000025A60224BCE
:1039C8004FF000029A60204B1E4A5A62204B1C4A54
:1039D8001A601F4B4FF000025A601D4B4FF0000257
:1039E8009A601B4B174A5A621A4B4FF07E521A6064
:1039F800184B4FF000025A60164B4FF000029A60C5
:103A0800144B104A5A62144B4FF07E521A60124BF4
:103A1800124A5A60104B4FF000029A60104B114A3C
:103A28001A600F4B4FF000025A600D4B4FF0000226
:103A38009A6000BFBD465DF8047B7047C004002053
:103A48000000A04000009643500500203333134087
:103A5800F00400208005002020050020CDCC4C3E3D
:103A6800B00500200000A04180B483B000AF7860AA
:103A780000BF0C37BD465DF8047B704780B483B047
:103A880000AF786000BF0C37BD465DF8047B704717
:103A980080B400AF00BFBD465DF8047B704780B4BA
:103AA80000AF00BFBD465DF8047B704780B483B0AB
:103AB80000AF786000BF0C37BD465DF8047B7047E7
:103AC80080B400AF00BFBD465DF8047B704780B48A
:103AD80083B000AF786000BF0C37BD465DF8047B4B
:103AE800704780B400AF00BFBD465DF8047B7047E7
:103AF80080B485B000AF184BBB604FF48073FB6097
:103B080007E0FB68013BFB60BB681A1DBA60002236
:103B18001A60FB68002BF4D1104B114A1A600F4B46
:103B28001B6823F007031A460C4B1A600D4B1B68E1
:103B38007B607B6803F04043B3F1404F00D0FEE761
:103B4800094B00221A80094B80221A6000BF1437E3
:103B5800BD465DF8047B7047E0050020E0090020C1
:103B6800E009002034EF00E0E4090020E809002023
:103B780080B400AF00BFBD465DF8047B704780B5D8
:103B880082B000AF78607868FFF76EFF00BF083733
:103B9800BD4680BD80B582B000AF78607868FFF719
:103BA8006DFF00BF0837BD4680BD80B500AFFFF789
:103BB8006FFF00BF80BD80B582B000AF78607868C5
:103BC800FFF774FF00BF0837BD4680BD80B500AF62
:103BD800FFF765FF00BF80BD80B487B000AFF86015
:103BE800B9607A607B807B6804337B617B6923F0F2
:103BF80007037B617B69043B7B617B69043B7B61D9
:103C08007B694FF000721A607B69043B7B617B69BA
:103C1800934A1A607B69043B7B617B69914A1A600D
:103C28007B69043B7B617B698F4A1A607B69043B33
:103C38007B617B698D4A1A607B69043B7B617B6988
:103C48008B4A1A607B69043B7B617B69894A1A60ED
:103C58007B69043B7B617B69874A1A607B69043B0B
:103C68007B617B694FF082421A607B69043B7B6110
:103C78007B69824A1A607B69043B7B617B69804A65
:103C88001A607B69043B7B617B697E4A1A607B69A9
:103C9800043B7B617B694FF081421A607B69043B7E
:103CA8007B617B69784A1A607B69043B7B617B692D
:103CB8004FF080421A607B69043B7B617B694FF05F
:103CC8007E521A607B69043B7B617B6900221A6023
:103CD8007B69043B7B617B694FF080721A607B696A
:103CE800043B7B61FA687B691A607B69043B7B61F2
:103CF800664A7B691A607B69043B7B617B694FF08C
:103D080012321A607B69043B7B617B694FF0033296
:103D18001A607B69043B7B617B694FF002321A6051
:103D28007B69043B7B617B694FF001321A607B69D8
:103D3800043B7B61BA687B691A607B69043B7B61E1
:103D48007B696FF012021A607B69043B7B617B69B7
:103D58004FF011321A607B69043B7B617B694FF03D
:103D680010321A607B69043B7B617B694FF0093232
:103D78001A607B69043B7B617B694FF008321A60EB
:103D88007B69043B7B617B694FF007321A607B6972
:103D9800043B7B617B694FF006321A607B69043B08
:103DA8007B617B694FF005321A607B69043B7B615C
:103DB8007B694FF004321A607B69043B7B617B6945
:103DC800334A1A607B69043B7B617B69314A1A601C
:103DD8007B69043B7B617B692F4A1A607B69043BE2
:103DE8007B617B692D4A1A607B69043B7B617B6937
:103DF8002B4A1A607B69043B7B617B69294A1A60FC
:103E08007B69043B7B617B69274A1A607B69043BB9
:103E18007B617B69254A1A607B69043B7B617B690E
:103E2800234A1A607B69043B7B617B69214A1A60DB
:103E38007B69043B7B617B691F4A1A607B69043B91
:103E48007B617B691D4A1A607B69043B7B617B69E6
:103E58001B4A1A607B69043B7B617B6932E000BFC7
:103E680000007041000060410000504100004041E6
:103E78000000304100002041000010410000E040F7
:103E88000000C0400000A0400000404099600008C9
:103E98000000F8410000F0410000E8410000E04166
:103EA8000000D8410000D0410000C8410000C041D6
:103EB8000000B8410000B0410000A8410000A04146
:103EC800000098410A4A1A607B69043B7B617B6960
:103ED800084A1A607B69043B7B617B694FF0834227
:103EE8001A607B6918461C37BD465DF8047B70472D
:103EF800000090410000884180B500AF074B1B6867
:103F08001B681846FCF788F9FFF7DAFD044B1B68B5
:103F18001B681846FCF789F900BF80BD600F0020B8
:103F2800680F002080B582B000AF78607868FFF72E
:103F3800CEFD00BF0837BD4680BD000080B500AF8C
:103F4800FFF7CFFD084B1B8801339AB2064B1A8046
:103F5800054B1B88002B04D0034B00221A8002F06B
:103F68001DF900BF80BD00BFE409002080B584B002
:103F780000AF78607B68064AA2FB0323DB08FB607E
:103F8800F86800F007F800BF1037BD4680BD00BFD5
:103F9800CDCCCCCC80B485B000AF78608023FB60FA
:103FA800124A7B68013B1360114B1B68BB60BB68FE
:103FB80023F07F43BB60FB681B06BA681343BB60F2
:103FC8000B4ABB6813600B4B1B680A4A43F0050396
:103FD8001360084B1B68074A43F00203136000BFD5
:103FE8001437BD465DF8047B704700BF14E000E05D
:103FF80020ED00E010E000E080B584B000AF3B4663
:10400800184602F063FC0348FFF7B0FF00BF103703
:10401800BD4680BD00BD010580B582B000AF8020DF
:10402800FCF709F9786000F053F97868FCF711F9A2
:1040380000F044FA00F066F900BF0837BD4680BDBD
:1040480080B483B000AF3C4B7B603C4B7B603C4B07
:104058007B603C4B7B603C4B7B603C4B7B603C4BD0
:104068007B603C4B7B603C4B7B603C4B7B603C4BC0
:104078007B603C4B7B603C4B7B603C4B7B603C4BB0
:104088007B603C4B7B603C4B7B603C4B7B603C4BA0
:104098007B603C4B7B603C4B7B603C4B7B603C4B90
:1040A8007B603C4B7B603C4B7B603C4B7B603C4B80
:1040B8007B603C4B7B603C4B7B603C4B7B603C4B70
:1040C8007B603C4B7B603C4B7B603C4B7B603C4B60
:1040D8007B603C4B7B603C4B7B603C4B7B603C4B50
:1040E8007B603C4B7B603C4B7B603C4B7B603C4B40
:1040F8007B603C4B7B603C4B7B603C4B7B603C4B30
:104108007B603C4B7B603C4B7B603C4B7B603C4B1F
:104118007B603C4B7B603C4B7B603C4B7B603C4B0F
:104128007B603C4B7B603C4B7B6000BF0C37BD46E3
:104138005DF8047B704700BF508100085481000877
:104148005A8100085C810008588100085E810008D7
:1041580060810008628100086481000866810008A7
:10416800688100086A8100086C8100086E81000877
:104178007081000872810008748100087681000847
:10418800788100087A8100087C8100087E81000817
:1041980080810008828100088481000886810008E7
:1041A800888100088A8100088C8100088E810008B7
:1041B8009081000892810008948100089681000887
:1041C800988100089A8100089C8100089E81000857
:1041D800A0810008A2810008A4810008A681000827
:1041E800A8810008AA81000854190020D81D0020C1
:1041F800AE810008B0810008B2810008B4810008CF
:10420800B6810008B8810008BA810008BC8100089E
:10421800BE810008AC810008C081000880B586B066
:1042280000AFF860B9607A6000237B61FB68002BFF
:1042380003D17B6804221A7025E0BB68002B03D1E8
:104248007B680C221A701EE0104B1B78002B03D0E1
:104258007B6812221A7016E0FB681B78013B032B5F
:1042680003D97B6801221A700DE000BF8020FBF79C
:10427800E2FF7861FB68BA685A617869FBF7E9FF81
:104288007B6800221A701837BD4680BD480D002093
:1042980080B500AFFFF72CFC00F066FB00F0A2FB36
:1042A80000F01EFC00F016FBFFF7A6FE00F0A0FED3
:1042B80000F010FF01F084FA00F0C6FB00F0EAFB02
:1042C80001F07EFFFFF754FCFFF7BAFE00BF80BD88
:1042D80080B400AF094B1B78012B09D1084B1B7820
:1042E800FF2B05D0064B1B780133DAB2044B1A704A
:1042F80000BFBD465DF8047B704700BF580D002025
:10430800480D002080B582B000AF00237B601E4BB3
:104318001B78012B34D18020FBF78DFF78601B4B75
:104328001B78002B05D0194B1B78013BDAB2174BD1
:104338001A70164B1B78002B1FD1154B1B78002BBE
:104348001BD100F077FC134B1B781A46124B53F81D
:104358002230124A13600F4B1A78114B1B789A427D
:104368000BD00E4B1B681A6C01321A640D4B1B687C
:1043780001330C4A1360FBF7B5FF7868FBF769FF58
:1043880000BF0837BD4680BD580D0020480D0020ED
:10439800490D00204B0D0020700F0020680F0020F1
:1043A8004A0D0020EC09002080B582B000AF002340
:1043B8007B600E4B1B78012B14D18020FBF73BFF51
:1043C80078600B4B1B78002B09D10A4B1B78FF2B0D
:1043D80005D0084B1B780133DAB2064B1A7078689F
:1043E800FBF737FF00BF0837BD4680BD580D0020DA
:1043F800480D0020490D002080B582B000AF002391
:104408007B60174B1B78012B26D18020FBF713FF0D
:104418007860144B1B78002B1BD1134B1B78002B97
:1044280013D0114B1B78013BDAB20F4B1A700E4BAD
:104438001B78002B05D17868FBF70BFF00F0B8FB61
:104448000AE07868FBF705FF06E07868FBF701FFEC
:1044580002E07868FBF7FDFE00BF0837BD4680BD67
:10446800580D0020480D0020490D002080B500AFF0
:104478000C4B1B78002B13D100F0DCFB0A4B1A788D
:104488000A4B1A70084B1B781A46094B53F822300E
:10449800084A1360074B1B68074A1360FBF7E2FEE4
:1044A80000BF80BD580D00204B0D00204A0D002094
:1044B800700F0020680F0020600F002080B584B0C6
:1044C80000AF00237B60FFF739FD8020FBF7B3FEC8
:1044D8007860454B1B680133434A13607868FBF7E3
:1044E800B8FE424B1B78012B7AD1414B1B78022B2B
:1044F8000CD0022B10DC002B02D0012B03D00BE0D8
:104508000123FB720EE00023FB720BE00123FB7218
:10451800374B01221A7005E00123FB72344B00224D
:104528001A7000BFFB7A002B59D0324B1B68FB6016
:104538004FE08020FBF77FFE7860FB685B6B002B09
:1045480041D0FB685B6B5A1EFB685A63FB685B6B68
:10455800002B38D1FB6893F8383003F03703002B71
:104568000DD0FB6893F8383023F03703DAB2FB68D4
:1045780083F83820FB68012283F8392003E0FB68C0
:10458800002283F83920FB6893F8383003F00803D9
:10459800002B18D1FB6893F83E20174B1B78134368
:1045A800DAB2154B1A70FB6893F83C301A46134B75
:1045B8009A5CFB6893F83D30F96891F83C10134316
:1045C800DAB20E4B5A54FB685B69FB607868FBF7FC
:1045D80040FEFB6893F83A303F2BAAD100E000BFB9
:1045E8001037BD4680BD00BF40190020580D00207F
:1045F800581800206C0F00204C0D0020500D002092
:1046080080B400AF00BFBD465DF8047B7047000072
:1046180080B586B000AFF860B96011461A460B46FF
:10462800FB711346BB71FB689B7A1A462F4B9B5C48
:10463800FB75FB7DFA681344DB7A1A462B4B9B5CAF
:10464800BB75FB7DDB00DAB2BB7D13447B757B7DDC
:10465800274A52F823303B613B6900225A633B6981
:10466800BA689A623B6993F83820FB79DB43DBB27E
:104678001340DAB23B6983F838203B69BA7983F88A
:1046880039203B6993F8383003F00803002B13D125
:104698003B6993F83E20174B1B781343DAB2154B4E
:1046A8001A70FB7D144AD15C3B6993F83D20FB7D71
:1046B8000A43D1B2104AD154F968386900F076F843
:1046C8003B691B6A002B0BD03B691B6A194638698A
:1046D80000F09FF83B6900221A623B69FA685A6247
:1046E8007B7D18461837BD4680BD00BFC4810008D1
:1046F800700F00204C0D0020500D002080B485B0B4
:1047080000AF7860264B1B687A68DA61244B1B6817
:1047180093F83C301A467B681344DA7A204B1B68BE
:1047280093F83D301E49096891F83C101343DAB2FA
:104738007B680B44DA727B689A7A194B1B6893F88A
:104748003E301343DAB27B689A72154B1B6893F8B4
:104758003C30FB73FB7B134AD15C114B1B6893F80D
:104768003D30DB43DAB2FB7B0A40D1B20D4AD1546B
:10477800FB7B0C4AD35C002B0BD1094B1B6893F8CD
:104788003E30DB43DAB2084B1B781340DAB2064BF3
:104798001A7000BF1437BD465DF8047B704700BF30
:1047A800600F0020500D00204C0D002080B485B013
:1047B80000AF786039607B6893F83C30FB73FB7B13
:1047C8003A681344D97A7B6893F83D30DB43DAB210
:1047D800FB7B0A40D1B23A6813440A46DA72FB7B83
:1047E8003A681344DB7A002B0AD13B689A7A7B68D3
:1047F80093F83E30DB43DBB21340DAB23B689A727F
:104808007B680022DA6100BF1437BD465DF8047B7F
:10481800704780B487B000AF786039607B6893F8E0
:104828003C30FB737B6893F83E30BB737B6893F82E
:104838003D307B733B687B617B691B683B6122E091
:10484800FB7B3A691344D97A7B7BDB43DAB2FB7B87
:104858000A40D1B23A6913440A46DA72FB7B3A69D4
:104868001344DB7A002B08D13B699A7ABB7BDB4384
:10487800DBB21340DAB23B699A727B6904337B611D
:104888007B691B683B613B69002BD9D100BF00BF26
:104898001C37BD465DF8047B704780B485B000AF17
:1048A80078607B6800229A720023FB7307E0FB7B29
:1048B8007A6813440022DA72FB7B0133FB73FB7BBB
:1048C800072BF4D900BF00BF1437BD465DF8047B41
:1048D8007047000080B584B000AFF0211F4800F099
:1048E8004DF90023FB811EE0FB890133FB80FA8927
:1048F80013465B001344DB00184A1344BB60FA8874
:1049080013465B001344DB00144A13443B60BB6846
:1049180000221A70BB683A685A60BB68104A5A612C
:10492800FB890133FB81FB89082BDDD9FA89134602
:104938005B001344DB00094A1344BB60BB680022D8
:104948001A70BB6800225A60BB68054A5A61054B59
:10495800024A1A6000BF1037BD4680BDF409002026
:1049680048800008F009002080B400AF124B0022F4
:104978001A60124B00221A70114B00221A70114B48
:1049880000221A70104B00221A70104B00221A6075
:104998000F4B00221A600F4B00221A600E4B0022A8
:1049A8001A600E4B00221A700D4B00221A7000BFBD
:1049B800BD465DF8047B704740190020480D002073
:1049C800490D0020590D0020580D0020EC09002049
:1049D8005C0D0020400B00203C0B0020440B002005
:1049E8003C19002080B483B000AF114B00221A702C
:1049F8000023FB7106E0FB790E4A0021D154FB79B4
:104A08000133FB71FB79072BF5D90B4B00221A7088
:104A18000A4B00221A700A4B00221A60094B002226
:104A28001A6000BF0C37BD465DF8047B704700BFB5
:104A38004C0D0020500D00204A0D00204B0D002089
:104A4800680F0020600F002080B588B006AF0323F0
:104A5800049300230393802302930A4B01934FF698
:104A6800FF7300933F23084A0021084801F060F8CB
:104A7800FB1D1A4606493F2001F0BEF900BF083762
:104A8800BD4680BD600D00205C0F0020854C0008ED
:104A98004C80000880B588B006AF03230493002338
:104AA8000393802302930A4B01934FF6FE730093FE
:104AB8003E23084A0021084801F03AF8FB1D1A462F
:104AC80006493E2001F098F900BF0837BD4680BD71
:104AD800480B0020440D0020B54C00085C800008FD
:104AE80080B584B000AF4FF4FD611F4800F046F870
:104AF8004FF480711D4800F041F80023FB7319E062
:104B0800FB7B0133FB71FB7B5C2202FB03F3164A40
:104B18001344BB60FB795C2202FB03F3124A134483
:104B28003B60BB683A685A61BB68114A5A65FB7BAF
:104B38000133FB73FB7B142BE2D9FB7B5C2202FB6A
:104B480003F3094A1344BB60BB6800225A61BB687F
:104B5800074A5A65074B00221A60074B024A1A6037
:104B680000BF1037BD4680BD70100020700F0020B8
:104B7800488000086C0F0020640F002080B483B0C8
:104B880000AF78600B467B8007E07B685A1C7A6030
:104B980000221A707B88013B7B807B88002BF4D134
:104BA80000BF00BF0C37BD465DF8047B70470000AE
:104BB80080B582B000AF00237B608020FBF73BFB11
:104BC8007860154B1B78002B1FD1144B1B78002BDA
:104BD8001BD100F02FF8124B1B781A46114B53F8D3
:104BE8002230114A13600E4B1A78104B1B789A42E8
:104BF8000BD00D4B1B681A6C01321A640C4B1B68E6
:104C080001330B4A1360FBF76DFB7868FBF721FB58
:104C180000BF0837BD4680BD480D0020490D002063
:104C28004B0D0020700F0020680F00204A0D002057
:104C3800EC09002080B483B000AF0C4B1B781A46F7
:104C48000B4B9B5CFB71FB79DB00DAB2FB79094902
:104C5800CB5C1946064B5B5C1344DAB2064B1A7000
:104C680000BF0C37BD465DF8047B70474C0D002033
:104C7800C4810008500D00204B0D002080B584B081
:104C880000AF78600023FB608020FBF7D4FAF8605F
:104C9800054B1B680133044A1360F868FBF7D9FA1F
:104CA800FEF783FFF0E700BF5C0D002080B584B0FD
:104CB80000AF78600023FB6002E0022001F01AFADE
:104CC800304B1B78002BF8D02F4B1B682F4AA2FBC8
:104CD80003235B092C4A13602B4B1B68002B05D15F
:104CE8002B4B00221A70FF2001F04EF98020FBF7B1
:104CF800A2FAF860244B1B68642202FB03F3254ADE
:104D08001360F868FBF7A5FA012001F0F3F9802099
:104D1800FBF791FAF8601F4B00221A60F868FBF75E
:104D280098FA012001F0E6F98020FBF784FAF86090
:104D3800184B1B68184A1360F868FBF78AFA164B79
:104D48001A68114B1B68B2FBF3F3DBB2C3F16403BF
:104D5800DBB2FB7297F90B30002B03DBFA7A0C4BB2
:104D68001A700AE00A4B00221A700B4B1B68074A9C
:104D7800A2FB03235B09044A1360FEF727FF00F038
:104D88000DF8C1E7440B00203C0B00201F85EB51B8
:104D9800380B00205C0D0020400B002080B584B04B
:104DA80000AF0023FB7323E03A46FB7B114618460D
:104DB80001F07CF80346BB73BB7B002B15D1FB7B52
:104DC8000F4A52F82330BB60BB68002B0DD0BB687C
:104DD800012B0AD0BB689A68BB68DB689B001A4441
:104DE800BB68DA647A68BB681A65FB7B0133FB73BE
:104DF800FB7B3F2BD8D900BF00BF1037BD4680BD15
:104E0800700F002080B588B000AFB9607A601A468C
:104E18000346FB731346BB810023BB618020FBF76D
:104E28000AFAB8616B4B1B687B617B69002B00F049
:104E3800C9807B695B69674A1360B869FBF709FA3F
:104E48007B69BA681A607B69FA7B83F83A207B69C8
:104E5800002283F838207B69002283F839207B6997
:104E680000225A637B69FA6A5A607B69BA6ADA6017
:104E78007B697A689A607B693A8E1A827B69BA89FB
:104E88005A827B69002283F83F20FB7BDB08DAB279
:104E98007B6983F83C20FB7B03F00703DAB27B696C
:104EA80083F83B207B6993F83C301A4601239340F2
:104EB800DAB27B6983F83E207B6993F83B301A4667
:104EC80001239340DAB27B6983F83D207B69002295
:104ED800DA617B6900221A627B6900225A627B6967
:104EE8000022DA627B6900229A627B6900221A64D6
:104EF8007B6900229A647B6900225A647B690022DC
:104F0800DA647B6900221A657B69334A5A65002393
:104F1800FB7708E0FA7F7B691632002143F82210FC
:104F2800FB7F0133FB77FB7F002BF3D07869FEF71B
:104F3800F9FF8020FBF77FF9B861FB7B27497A6985
:104F480041F82320B869FBF784F97869FEF717FE62
:104F58008020FBF770F9B861214B1A687B695A61A8
:104F68007B6900229A611E4B1B68002B03D01C4BE7
:104F78001B687A699A611A4A7B6913607B6993F89E
:104F88003E20184B1B781343DAB2164B1A707B6914
:104F980093F83C301A46144B9A5C7B6993F83D3081
:104FA800796991F83C101343DAB20F4B5A540F4BFE
:104FB8001B780133DAB20D4B1A70B869FBF749F95F
:104FC800002303E0B869FBF744F942231846203769
:104FD800BD4680BD640F002048800008700F002087
:104FE8006C0F00204C0D0020500D0020590D0020A2
:104FF80080B584B000AF50211B48FFF7BFFD0023E8
:10500800FB8118E0FB890133FB80FB891B01164AF1
:105018001344BB60FB881B01134A13443B60BB6805
:1050280000221A70BB683A685A60BB680F4ADA6097
:10503800FB890133FB81FB89032BE3D9FB891B0126
:10504800094A1344BB60BB6800221A70BB6800227F
:105058005A60BB68054ADA60054B034A1A6000BF0C
:105068001037BD4680BD00BFE40A00204880000814
:10507800340B002080B487B000AF78607B685B6831
:105088007B617B681B683B617B69002B0CD17B686B
:10509800DB68FB60FB683A695A603B69002B0CD0FF
:1050A8003B6900225A6008E07B693A691A603B69EB
:1050B800002B02D03B697A695A607B689B68BB60A9
:1050C800BB680022DA6200BF1C37BD465DF8047B6E
:1050D8007047000080B582B000AF78211A48FFF70A
:1050E8004DFD0023FB8017E0FA8813465B0013444C
:1050F800DB00154A13443B60FB885A1C13465B00CF
:105108001344DB00104A1A443B685A603B680F4A54
:105118005A61FB880133FB80FB88032BE4D9FA88AA
:1051280013465B001344DB00074A13443B603B68AB
:1051380000225A603B68054A5A61054B024A1A60C8
:1051480000BF0837BD4680BD6018002048800008B1
:105158005C18002080B584B000AF03463960FB714D
:105168000023FB60FB79FF2B07D0FB793E2B04D98A
:105178003B682A221A70002359E02F4B1B78002B1A
:1051880004D03B6810221A70002350E08020FBF7FF
:1051980052F8F860FB79FF2B12D0FB79274A52F8B6
:1051A8002330002B07D0F868FBF753F83B68282218
:1051B8001A7000233BE0FB79204A012142F82310B2
:1051C8001F4B1B68BB60BB68002B0FD1FB79FF2B03
:1051D80004D0FB79194A002142F82310F868FBF73C
:1051E80038F83B6804221A70BB6820E0144B1B682F
:1051F8005B68134A1360F868FBF72BF8BB68042256
:105208001A70FB799BB21B029BB243F0FF039AB260
:10521800BB681A81BB6800225A60BB68094A5A6198
:10522800B868FFF73AFB3B6800221A70BB6818465B
:105238001037BD4680BD00BF480D0020700F00200C
:10524800F00900204880000880B58AB000AFF860F7
:10525800B9607A6000233B62FB68002B03D17B684E
:1052680004221A7094E1FB681B78042B03D07B6836
:1052780001221A708CE1844B1B78002B03D07B68C9
:1052880002221A7084E1814B1B78002B03D07B68C3
:105298000D221A707CE18020FAF7CDFF3862FB6896
:1052A8001B891B0A9BB2FB77FB681B89DBB2FF2BB0
:1052B8002DD1FB681B8923F0FF039AB2FB681A8182
:1052C800FB681A89724B1B6893F83A309BB21343F8
:1052D8009AB2FB681A816E4B1A68FB685A60FB7FAA
:1052E800FF2B0DD06A4B1B6893F83A30FA7F9A422D
:1052F80006D3386AFAF7ADFF7B6878221A7047E15F
:10530800386AFAF7A6FF7B6800221A7040E1FB7F33
:10531800FF2B00F0E980FB681B89BB77FB685B68A3
:10532800BB61BB6993F83A30FA7F9A4280F0DC801F
:10533800574B1B6893F83A30BA7F9A4240F2D480B0
:10534800BB6993F83C30FB75FB7D524AD25CBB6964
:1053580093F83D301340DBB2002B20D0FB7D4D4A43
:10536800D15CBB6993F83D30DB43DAB2FB7D0A4080
:10537800D1B2484AD154FB7D464AD35C002B0AD1AE
:10538800BB6993F83E30DB43DAB2434B1B781340DA
:10539800DAB2414B1A70012387F827302DE0BB6938
:1053A800DB693B613B69002B24D0BB6993F83C3037
:1053B800FB75FB7D3A691344D97ABB6993F83D3094
:1053C800DB43DAB2FB7D0A40D1B23A6913440A469C
:1053D800DA72FB7D3A691344DB7A002B0AD13B6908
:1053E8009A7ABB6993F83E30DB43DBB21340DAB2FA
:1053F8003B699A72002387F82730BB69FA7F83F8E4
:105408003A20BB6993F83A30DB08DAB2BB6983F813
:105418003C20BB6993F83A3003F00703DAB2BB6962
:1054280083F83B20BB6993F83C301A46012393402C
:10543800DAB2BB6983F83E20BB6993F83B301A4661
:1054480001239340DAB2BB6983F83D2097F82730EF
:10545800012B23D1BB6993F83E200F4B1B781343D4
:10546800DAB20D4B1A70BB6993F83C301A46094BF7
:105478009A5CBB6993F83D30B96991F83C101343C5
:10548800DAB2044B5A542AE0480D0020490D002096
:10549800600F0020500D00204C0D0020BB69DB6917
:1054A8003B613B69002B1AD03B699A7ABB6993F838
:1054B8003E301343DAB23B699A72BB6993F83C30C9
:1054C8001A463B691344DA7ABB6993F83D30B969E7
:1054D80091F83C101343DAB23B690B44DA72FB7F54
:1054E8002D49BA6941F823202C4B1B6893F83820C2
:1054F8002A4B1B6842F01002D2B283F83820274B9F
:105508001B68002283F83920244B1B68BA685A6349
:10551800F868FFF7F3F8386AFAF79BFEFFF748FBDD
:105528008020FAF788FE38621C4B1B6893F83930E4
:10553800002B02D0022B04D007E07B6800221A70EF
:105548000DE07B680E221A7009E0144B1B68F9689D
:105558001846FFF72BF97B680A221A7000BF0F4B19
:105568001B68002283F838200C4B1B68002283F844
:1055780039200A4B1B680022DA61084B1B6800229D
:105588001A62064B1B6800225A62386AFAF761FEF3
:105598002837BD4680BD00BF700F0020600F002077
:1055A80080B584B000AF78600023FB60424B1B7865
:1055B800002B01D005237BE07B68002B01D104235D
:1055C80076E07B681B78042B01D0012370E08020F3
:1055D800FAF731FEF8607B681B891B0A9BB2FB72E5
:1055E8007B681B89BB727B685A68344B1B689A427C
:1055F80004D0F868FAF72DFE642359E0FB7AFF2BF4
:1056080012D02E4B1B6893F83A30FA7A9A4206D198
:105618002A4B1B68BA7A1146184600F053F8FB7AF1
:10562800274A012142F823107B689B7A002B31D04E
:105638000023102200217868FEF7EAFF0346BB72B8
:105648007B681B8923F0FF039AB27B681A817B6809
:105658001A89BB7A9BB213439AB27B681A81BB7AC8
:10566800174A52F823207B685A60FB7AFF2B0AD02E
:10567800BA7AFB7A9A4206D8F868FAF7EAFDFFF791
:1056880097FA782314E0F868FAF7E3FDFFF790FA41
:1056980000230DE07B681B8943F0FF039AB27B6807
:1056A8001A817B6800225A60F868FAF7D2FD002355
:1056B80018461037BD4680BD480D0020600F0020F9
:1056C800700F002080B485B000AF78600B46FB7087
:1056D8007B6893F83C30FB73FB7B354AD15C7B6875
:1056E80093F83D30DB43DAB2FB7B0A40D1B2304A53
:1056F800D154FB7B2E4AD35C002B0AD17B6893F8EC
:105708003E30DB43DAB22B4B1B781340DAB2294B1D
:105718001A707B68FA7883F83A20274AFB78137066
:10572800FB78DB08DBB203F00703DAB27B6883F8A7
:105738003C20FB7803F00703DAB27B6883F83B2050
:105748007B6893F83C301A4601239340DAB27B68B1
:1057580083F83E207B6893F83B301A460123934038
:10576800DAB27B6883F83D207B6893F83E20114BC2
:105778001B781343DAB20F4B1A707B6893F83C30EE
:105788001A460B4B9A5C7B6893F83D30796891F820
:105798003C101343DAB2064B5A54FB7807497A682F
:1057A80041F8232000BF1437BD465DF8047B7047DD
:1057B800500D00204C0D00204A0D0020700F0020D5
:1057C80080B584B000AF60211948FFF7D7F90023EE
:1057D800FB8118E0FB890133FB80FA8913465B00E3
:1057E8001344DB00124A1344BB60FA8813465B007B
:1057F8001344DB000E4A13443B60BB683A681A60E6
:10580800FB890133FB81FB89022BE3D9FA89134613
:105818005B001344DB00064A1344BB60BB680022EC
:105828001A60044B024A1A6000BF1037BD4680BD9B
:10583800DC180020D818002080B584B000AF0346DB
:10584800FB800023FB60184B1B78002B01D0002342
:1058580025E08020FAF7EFFCF860144B1B68BB606A
:10586800124B1B68002B04D0104B1B685B680F4A57
:105878001360F868FAF7EDFCBB68002B0ED0BB6824
:1058880003221A70BB68FA881A81BB6800225A6022
:10589800BB68074A5A61B868FEF7FFFFBB6818463D
:1058A8001037BD4680BD00BF480D0020F00900201C
:1058B8004880000880B586B000AFF860B9607A60AB
:1058C80000237B61FB68002B03D17B6804221A70DC
:1058D80080E0FB681B78032B03D07B6801221A70D9
:1058E80078E03E4B1B78002B03D07B6802221A70AD
:1058F80070E03B4B1B78002B03D07B680D221A709D
:1059080068E08020FAF797FC7861FB681B89002B18
:105918000CD0FB681B89013B9AB2FB681A81786935
:10592800FAF797FC7B6800221A7053E02D4B1B682E
:1059380093F838202B4B1B6842F00102D2B283F84F
:105948003820284B1B68002283F83920254B1B6818
:10595800BA685A63F868FEF7D1FE7869FAF779FCF5
:10596800FFF726F98020FAF766FC78611D4B1B6863
:1059780093F83930002B02D0022B04D007E07B6863
:1059880000221A700DE07B680E221A7009E0154B90
:105998001B68F9681846FEF709FF7B680A221A7027
:1059A80000BF104B1B68002283F838200D4B1B6882
:1059B800002283F839200B4B1B680022DA61094B5F
:1059C8001B6800221A62074B1B6800225A6278691A
:1059D800FAF73FFC1837BD4680BD00BF480D0020D0
:1059E800490D0020600F002080B584B000AF7860BA
:1059F8000023FB607B68002B01D104232FE07B6828
:105A08001B78032B01D0012329E08020FAF713FC2F
:105A1800F8607B689B7A002B0CD0002301220021C0
:105A28007868FEF7F5FDF868FAF713FCFFF7C0F899
:105A3800002314E07B681B894FF6FF7293420AD05B
:105A48007B681B8901339AB27B681A81F868FAF778
:105A580000FC002303E0F868FAF7FBFB3323184641
:105A68001037BD4680BD000080B58CB004AFF8602B
:105A7800B9607A60FB700023FB61FB783F2B01D98A
:105A88002A234BE08020FAF7D6FBF861254B1B78D8
:105A9800002B04D0F869FAF7DCFB3C233EE0FB78E6
:105AA800214A52F82330002B34D1FB781E4A0121B9
:105AB80042F82310F869FAF7CCFB00237A68B96832
:105AC800F868FEF789F8B861F87800230293002394
